S00C00006C6162392E73726563B0
S113000019C1000035C1000033C1000031C1000036
S11300102FC100002DC100002BC1000029C1000028
S113002027C10000C6C4000023C1000039C100007C
S11300301FC100001DC100001CC1000019C1000047
S113004017C1000015C1000013C1000011C1000058
S11300500FC100000DC100000BC1000009C1000068
S113006007C1000005C1000003C1000001C1000078
S1130070FFC00000FDC00000FBC00000F9C000008C
S1130080F7C00000F5C00000F3C000000664EC1BDC
S11300903C04BC163E3BE5B93CC93C37C29E5A3DC4
S11300A0660498083EEA69AAAA3E000000803F0759
S11300B0634236B79BD8A71A39685618AEBAAB55FF
S11300C08C1D3CB7CC5763BD6DEDFD753EF61772C4
S11300D031BF000000803F08000000BE9224491296
S11300E03EABAAAA2ABECDCCCC4C3E00000080BEBA
S11300F0ABAAAAAA3E00000000BF000000803F0097
S113010000000000084178D3BB4387D1133D190E8A
S11301103CC3BD4282AD2B3E68EC8276BED98FE1F2
S1130120A93E4C80EFFFBE01C4FF7F3F00000000EA
S113013000006E616E00696E660000407A10F35A2A
S113014000A0724E18090010A5D4E80000E8764813
S1130150170000E40B54020000CA9A3B000000E1BF
S1130160F505000080969800000040420F00000052
S1130170A08601000000102700000000E803000032
S113018000006400000000000A00000000000100FC
S1130190000000002C76D888DC674F0823DFC1DF1D
S11301A0AE59E1B1B796E5E3E453C63AE651997620
S11301B096E8E6C28426EB898C9B62ED407C6FFC5A
S11301C0EFBC9C9F40F2BAA56FA5F490055A2AF79C
S11301D05C936B6CF9676DC11BFCE0E40D47FEF5A5
S11301E020E6B500D0ED902E03009435770500800D
S11301F0841E080000204E0A000000C80C3333336C
S1130200330F986E12831141EF8D2114893BE6550B
S113021016CFFEE6DB18D1844B381BF77C1D901DEE
S1130220A4BBE424203284725E228100C9F124EC50
S1130230A1E53D2711241FBECFEFD0E1DEBFCDBF26
S113024011E0A0E0B1E0ECE7FFE100E00BBF02C089
S113025007900D92A83AB107D9F722E0A8EAB1E0D5
S113026001C01D92A131B207E1F797D00C94BC0FE5
S1130270C7CE1F920F920FB60F9211248F939F93A4
S11302808091BA019091BB0101969093BB01809338
S1130290BA019F918F910F900FBE0F901F901895E8
S11302A01F920F920FB60F9211240BB60F922F9339
S11302B03F934F935F936F937F938F939F93AF93EA
S11302C0BF93EF93FF930EB406FE09C086B597B5AE
S11302D09093B7018093B60182E88EBD4BC086B57A
S11302E097B59093B9018093B80182EC8EBD80914B
S11302F0B8019091B9012091B6013091B701821BE8
S1130300930B9093B5018093B4016091B401709103
S1130310B501882777FD8095982F7CD52FE632E1AB
S113032043E05AE32BD66093B0017093B1018093FC
S1130330B2019093B3016091B0017091B1018091C9
S1130340B2019091B30120E030E048E052E416D6C7
S113035020E030E040E05FE311D620E030E04CEEF6
S113036051E459D46093AC017093AD018093AE0114
S11303709093AF01FF91EF91BF91AF919F918F91B6
S11303807F916F915F914F913F912F910F900BBE91
S11303900F900FBE0F901F9018952F923F924F927F
S11303A05F926F927F928F929F92AF92BF92CF9201
S11303B0DF92EF92FF920F931F93CF93DF93CDB70A
S11303C0DEB7C955D5400FB6F894DEBF0FBECDBF1A
S11303D081E290E005D392D3CED3E6D3EDD18DE282
S11303E0E8E4F1E0DE01A956BF4F01900D928A9531
S11303F0E1F79E0129563F4F690100E010E07901C1
S113040006C0F60181916F01F5D20F5F1F4FF7010E
S113041001900020E9F73197EE19FF090E171F0725
S113042080F38DE0E7D28AE0E5D284EF91E0ABD2AD
S113043080E090E0D5D380EB94E0A5D25E01FCEAA5
S1130440AF1AFDEFBF0A612C712C812C912CC12CA9
S1130450D12CE12CF12C00E010E097D3C601C0D3DD
S11304608091060168D3262E372E482E592E862FCA
S1130470932DA42DB52DF50180839183A283B3839D
S11304808091AC019091AD01A091AE01B091AF010A
S113049020E030E048E052E4622D732D842D952D48
S11304A069D5181674F420E030E042EA52E4622D73
S11304B0732D842D952D14D488231CF4F2E08F0E13
S11304C0911C20E030E048E052E46E2D7F2D802F17
S11304D0912F50D518160CF076C020E030E042EA97
S11304E052E46E2D7F2D802F912FFAD388230CF0A8
S11304F06AC020E030E042EA52E4622D732D842D7C
S1130500952D38D518160CF05EC02FEF621A720ABA
S1130510F301EE0FFF1F48E251E04C0F5D1FE40FA3
S1130520F51F91828082C40199230CF4019695955C
S11305308795F601E81BF90BCF01E0FD0CC0F30130
S1130540EE0FFF1F24EC30E02C0F3D1FE20FF31FD2
S1130550918380830CC0F301EE0FFF1F44EC50E045
S11305604C0F5D1FE40FF51F019691838083F30107
S1130570EE0FFF1FEE0FFF1F8CE891E08C0F9D1F05
S1130580E80FF91FD301AA0FBB1F24EC30E02C0F96
S11305903D1FA20FB31F0D90BC91A02DAA0FBB1F2E
S11305A0AA0FBB1F44E552E04C0F5D1FA40FB51FFB
S11305B08D919D910D90BC91A02D80839183A283F8
S11305C0B383812C912C8091AC019091AD01A091C9
S11305D0AE01B091AF018093A8019093A901A093BB
S11305E0AA01B093AB0189E190E0CDD12091AC0197
S11305F03091AD014091AE015091AF01E22CF32C4A
S1130600042D152DB601CE010196F8D189E190E0B3
S1130610BAD152E0C50ED11C88E0A80EB11C94EBEF
S1130620C916D10429F0E22CF32C042D152D15CF75
S1130630B301CE01885D9A4F28D2EFEF6E1A7E0A7D
S1130640F2E06F167104ECF0FE01E65DFE4F01E08E
S113065010E081E090E021913191D801AA0FBB1FF5
S113066048E251E04C0F5D1FA40FB51F4D915C9102
S1130670241735070CF48C0101968615970559F754
S113068002C001E010E07801EE0CFF1CE4ECF0E0A5
S1130690EC0FFD1FEE0DFF1D80819181A1D2F801A9
S11306A0EE0FFF1FEE0FFF1F8CE891E08C0F9D1FD4
S11306B0E80FF91FD080C18072806380E8E2F1E026
S11306C0EC0FFD1FEE0DFF1DE080F180B7018827C0
S11306D077FD8095982F9ED320E030E044EB53E4DF
S11306E003D32AED3FE049E450E448D416D54B0146
S11306F05C012D2D3C2D472D562D6D2D7C2D872DE8
S1130700962D8AD2A501940139D49F938F937F9318
S11307106F936F927F92CF92DF92FF92EF921F932B
S11307200F938BE091E09F938F9397D00FB6F8943B
S1130730DEBF0FBECDBF80E090E0C75ADA4F0FB6E0
S1130740F894DEBF0FBECDBFDF91CF911F910F9103
S1130750FF90EF90DF90CF90BF90AF909F908F90DD
S11307607F906F905F904F903F902F900895DE9A06
S113077090E009D1DE988BB3807F8BBB0895CF9333
S1130780C82FDC988BB39C2F92959F70892B8BBBC1
S113079082E0EDDF8BB3CF70C82BCBBB82E0E7DF09
S11307A0DC9ACF91089581E0EADF81E090E0EBC02C
S11307B0089582E0E4CF08958FEF8ABB83E08BBB7A
S11307C0DE9A81E090E0DFD0DE9885E090E0DBD037
S11307D0DE9A81E090E0D7D0DE98DE9A81E090E066
S11307E0D2D0DE9882E08BBB81E0C1DF8BB38BBBC0
S11307F081E0BDDF8BB38E608BBB81E0B8DF8BB350
S11308008BBB81E0B4DF8BB386608BBB81E0AFDF51
S11308108BB38BBB81E0ABDFD89A81E0A8DFDC9A95
S1130820C8CF089580ECABCF089584E9A8CF08958C
S113083084EDA5CF0895CF93C82F8BB39C2F9295A9
S11308409F70892B8BBB81E092DF8BB3CF70C82B59
S1130850CBBB81E08CDFCF910895CF92DF92EF92F2
S1130860FF920F931F93CF93DF93CDB7DEB7C1559C
S1130870D1090FB6F894DEBF0FBECDBFFE01E45A16
S1130880FF4F419151919F0161E570E0CE010196C6
S11308900E94260FBE016F5F7F4F8CEB91E00E9498
S11308A0AB0E892B09F443C0BE016F5F7F4F8CEB05
S11308B091E00E94B40E77DF9E012F5F3F4F6901E4
S11308C000E010E00F2EF4E1EF2EF12CF02D27C004
S11308D08A3051F4C801B7010E94A10DF701E81B49
S11308E0F90B0E0F1F1F03C0A6DF0F5F1F4FC801B8
S11308F0B7010E94A10D892B91F4C801B7010E9490
S1130900A10D6230710541F06330710539F0613039
S1130910710529F487DF03C088DF01C089DFF60190
S113092081916F01882319F0003511058CF2CF5A9B
S1130930DF4F0FB6F894DEBF0FBECDBFDF91CF916E
S11309401F910F91FF90EF90DF90CF900895109238
S1130950100210920F02811106C08BE085BD87B78B
S1130960806887BF07C0813029F489E085BD87B7D7
S1130970806887BF7894089587B78F7787BF85B5D8
S11309808F7785BD0895CF93DF93EC018AEF83BD04
S11309901092100210920F0280E0D9DF20910F0212
S11309A0309110022C173D07C8F3E6DFDF91CF9199
S11309B008951F920F920FB60F9211248F939F9355
S11309C080910F02909110020196909310028093EF
S11309D00F029F918F910F900FBE0F901F9018954B
S11309E09093900089B9599A88E18AB98EE08093EE
S11309F0950008955D9BFECF8CB90895CF92DF9248
S1130A00EF92FF920F931F93CF93DF93C82ED92EAB
S1130A101F930F93FF92EF925F934F933F932F9304
S1130A207F936F9325E731E03F932F939F938F93A9
S1130A300E94F80E0C2D1D2D8DB79EB70E960FB685
S1130A40F8949EBF0FBE8DBFC0E0D0E005C0F80192
S1130A5081918F01CFDF2196EC2DFD2DDF010D90CB
S1130A600020E9F71197AE1BBF0BCA17DB0778F319
S1130A708DE0C0DF8AE0BEDFDF91CF911F910F913F
S1130A80FF90EF90DF90CF900895EF92FF920F9335
S1130A901F93CF93DF93E82EF92E7F936F9325E86E
S1130AA031E03F932F939F938F930E94F80E0E2D66
S1130AB01F2D0F900F900F900F900F900F90C0E08C
S1130AC0D0E005C0F80181918F0194DF2196EE2DCD
S1130AD0FF2DDF010D900020E9F71197AE1BBF0B2E
S1130AE0CA17DB0778F38DE085DF8AE083DFDF91C7
S1130AF0CF911F910F91FF90EF90089582EC87B9E9
S1130B0087EA86B9089587B9369A349BFECF84B1B3
S1130B1095B10895BC01882777FD8095982F7AD1E7
S1130B202AEB39E44CE85FEB8CD220E03CE740E967
S1130B3056E424C20895FF920F931F93CF93DF933B
S1130B40F82EC5E0D0E000E010E08F2DDCDF080FC8
S1130B50191F88E290E017DF21972097B1F7C801A9
S1130B6065E070E0EED7CB01D5DFDF91CF911F9127
S1130B700F91FF9008951FBC82EC8EBD10927A00F5
S1130B8084E287BF11BA7894089587B717BE8C9A08
S1130B90949A81E090E0F7DE94988C9886B716BE1C
S1130BA087B7846287BF08958091090190910A01F3
S1130BB0019790938700809386008091070190911C
S1130BC00801019790938500809384008BEA8093B9
S1130BD08B008AE180938A0010928C00149A089505
S1130BE0BC0180E090E014D12BE734E140EA51E409
S1130BF0C5D120E030E048E454E40ED06ED2DCD01D
S1130C0070930E0260930D02615071097093850018
S1130C106093840008955058BB27AA270ED070C152
S1130C2061D130F066D120F031F49F3F11F41EF40D
S1130C3056C10EF4E095E7FB4CC1E92F72D180F365
S1130C40BA17620773078407950718F071F49EF5C5
S1130C508AC10EF4E0950B2EBA2FA02D0B01B90119
S1130C6090010C01CA01A0011124FF27591B99F01E
S1130C70593F50F4503E68F11A16F040A22F232F2A
S1130C80342F4427585FF3CF469537952795A7957A
S1130C90F0405395C9F77EF41F16BA0B620B730B21
S1130CA0840BBAF09150A1F0FF0FBB1F661F771F92
S1130CB0881FC2F70EC0BA0F621F731F841F48F447
S1130CC0879577956795B795F7959E3F08F0B3CFCD
S1130CD09395880F08F09927EE0F979587950895B7
S1130CE0D4D008F481E008950CD00AC102D140F0B8
S1130CF0F9D030F021F45F3F19F0EBC0511134C149
S1130D00EEC00FD198F39923C9F35523B1F3951B82
S1130D10550BBB27AA2762177307840738F09F5F18
S1130D205F4F220F331F441FAA1FA9F333D00E2E87
S1130D303AF0E0E830D091505040E695001CCAF7F4
S1130D4029D0FE2F27D0660F771F881FBB1F2617B9
S1130D5037074807AB07B0E809F0BB0B802DBF018C
S1130D60FF2793585F4F2AF09E3F510568F0B1C0AA
S1130D70FBC05F3FECF3983EDCF38695779567956F
S1130D80B795F7959F5FC9F7880F911D969587953D
S1130D9097F90895E1E0660F771F881FBB1F62175C
S1130DA073078407BA0720F0621B730B840BBA0B1A
S1130DB0EE1F88F7E0950895BCD088F09F5790F017
S1130DC0B92F9927B751A0F0D1F0660F771F881F6C
S1130DD0991F1AF0BA95C9F712C0B13081F0C3D087
S1130DE0B1E00895C0C0672F782F8827B85F39F025
S1130DF0B93FCCF3869577956795B395D9F73EF4CB
S1130E0090958095709561957F4F8F4F9F4F089572
S1130E10E89409C097FB3EF4909580957095619590
S1130E207F4F8F4F9F4F9923A9F0F92F96E9BB2746
S1130E309395F695879577956795B795F111F8CFC2
S1130E40FAF4BB0F11F460FF1BC06F5F7F4F8F4F2D
S1130E509F4F16C0882311F096E911C0772321F023
S1130E609EE8872F762F05C0662371F096E8862FBB
S1130E7070E060E02AF09A95660F771F881FDAF712
S1130E80880F9695879597F90895990F0008550F3F
S1130E90AA0BE0E8FEEF16161706E807F907C0F0FC
S1130EA012161306E407F50798F0621B730B840B04
S1130EB0950B39F40A2661F0232B242B252B21F4DE
S1130EC008950A2609F4A140A6958FEF811D811D7E
S1130ED0089597F99F6780E870E060E008959FEFB8
S1130EE080EC089500240A941616170618060906BD
S1130EF0089500240A94121613061406050608958C
S1130F00092E0394000C11F4882352F0BB0F40F413
S1130F10BF2B11F460FF04C06F5F7F4F8F4F9F4F53
S1130F20089557FD9058440F551F59F05F3F71F0D5
S1130F304795880F97FB991F61F09F3F79F087953C
S1130F400895121613061406551FF2CF4695F1DFC5
S1130F5008C0161617061806991FF1CF8695710555
S1130F60610508940895E894BB2766277727CB0189
S1130F7097F908958ADF08F48FEF08950BD0C0CF56
S1130F80B1DF28F0B6DF18F0952309F0A2CFA7CF80
S1130F901124EACFC6DFA0F3959FD1F3950F50E05B
S1130FA0551F629FF001729FBB27F00DB11D639F17
S1130FB0AA27F00DB11DAA1F649F6627B00DA11DBD
S1130FC0661F829F2227B00DA11D621F739FB00D63
S1130FD0A11D621F839FA00D611D221F749F3327D3
S1130FE0A00D611D231F849F600D211D822F762F6C
S1130FF06A2F11249F5750408AF0E1F088234AF069
S1131000EE0FFF1FBB1F661F771F881F91505040B4
S1131010A9F79E3F510570F05CCFA6CF5F3FECF37C
S1131020983EDCF3869577956795B795F795E795A0
S11310309F5FC1F7FE2B880F911D9695879597F9B1
S11310400895FA01EE0FFF1F30962105310599F13D
S11310506115710561F48038BFE39B0749F1689419
S11310609038810561F08038BFEF9B0741F09923E8
S113107042F5FF3FE1053105210511F1E89408949B
S1131080E795D901AA2329F4AB2FBE2FF85FD0F33B
S113109010C0FF5F70F4A695E0F7F73950F019F02F
S11310A0FF3A38F49F779F930CD00F9007FC905829
S11310B008953EF014CF60E070E080E89FE3089567
S11310C04FE79F775F934F933F932F9340D12F9197
S11310D03F914F915F9152DF45C02BDFE0F09E3787
S11310E0D8F09639B8F49E3848F4672F782F8827BB
S11310F0985FF9CF86957795679593959539D0F351
S1131100B62FB1706B0F711D811D20F487957795F3
S11311106795939553C06DC027CFDF93D92FAED079
S1131120E695D7952AED3FE049E45FE3B33A6207D9
S1131130730784079507D7952AF0A2EA49EC9068CB
S11311407CDDDEDEECE8F0E087D0DD0F0BF0BDD017
S1131150DD0F0BF49058DF91089519F40EF0B9CE19
S113116002CFBDCEE6DEC8F39638C0F707F80F927B
S1131170E8942BE33AEA48EB5FE70EDF0F920F9215
S11311800F924DB75EB70F9222D1EFEAF0E03FD055
S11311904F915F91EF91FF91E595EE1FFF1F49F08D
S11311A0FE57E0684427EE0F441FFA95E1F7419596
S11311B0550B94D00F9007FE88C00895882371F4CE
S11311C0772321F09850872B762F07C0662311F4DC
S11311D099270DC09051862B70E060E02AF09A9513
S11311E0660F771F881FDAF7880F9695879597F90A
S11311F008959F3F31F0915020F487957795679536
S1131200B795880F911D9695879597F90895DF9363
S1131210CF931F930F93FF92EF92DF927B018C0188
S1131220689405C0DA2EEF01B5DEFE01E894A591BD
S11312302591359145915591AEF3EF01FEDCFE0108
S11312409701A801DA9479F7DF90EF90FF900F915E
S11312501F91CF91DF9108959F938F937F936F9305
S1131260FF93EF939B01AC0189DEEF91FF91CFDFF8
S11312702F913F914F915F9181CE31CE5ADEE8F3A9
S1131280E894E0E0BB279F57F0F02AED3FE049ECFB
S113129006C0EE0FBB0F661F771F881F28F0B23AF7
S11312A062077307840728F0B25A620B730B840B2E
S11312B0E3959A9572F7803830F49A95BB0F661FC0
S11312C0771F881FD2F7904896CF9B01AC0160E04E
S11312D070E080E89FE308CDFCCD8BCF2ADEE8F3F5
S11312E09923D9F3940F511DBBF39150504094F0BE
S11312F059F0882332F0660F771F881F91505040B1
S1131300C1F79E3F510544F7880F911D9695879527
S113131097F908955F3FACF0983E9CF0BB27869503
S113132077956795B79508F4B1609395C1F7BB0FAE
S113133058F711F460FFE8CF6F5F7F4F8F4F9F4FD7
S1131340E3CF12CE0EF055CFCACD6894C2CDF1DDF5
S1131350C8F39923D1F3C6F3DF93CF931F930F936D
S1131360FF92C92FDD2788232AF02197660F771F64
S1131370881FDAF720E030E040E85FEB9FE388392C
S113138020F0803E30F021968F7746DCE7EDF0E0E8
S113139003C042DCE4E0F1E03ADF8B01BE01EC0182
S11313A0FB2E6F5771097595771F880B990B32DDEA
S11313B028E132E741E35FE3EDDDAF2D9801AE01B3
S11313C0FF900F911F91CF91DF9137DC99CDFA01F6
S11313D0DC01AA0FBB1F9B01AC01BF5728F42227D5
S11313E03327442750781FC0B75188F4AB2F00240B
S11313F0469537952795011CA395D2F3002069F0F3
S1131400220F331F441FB395DAF30DD004CC61309F
S11314107105A0E88A07B94630F49B01AC01662740
S1131420772788279078309621F020833183428370
S1131430538308952F923F924F925F926F927F92BF
S11314408F929F92AF92BF92CF92DF92EF92FF92D0
S11314500F931F93CF93DF93CDB7DEB763970FB688
S1131460F894DEBF0FBECDBF7C011B016A01FC01F5
S113147017821682838181FF49C3BE016F5F7F4F4C
S11314804B01F7019381F10193FD859193FF8191C4
S11314901F01882309F436C3853239F493FD8591FD
S11314A093FF81911F01853231F4B70190E06ED42E
S11314B056016501E6CF10E0512C20E02032A0F463
S11314C08B3269F030F4803259F0833269F4206150
S11314D02CC08D3239F0803339F4216026C022606B
S11314E0246023C0286021C027FD27C030ED380FB9
S11314F03A3078F426FF06C0FAE01F9F300D11241D
S1131500132F13C06AE0569E300D1124532E20620F
S11315100CC08E3221F426FDF5C2206406C08C3640
S113152011F4206802C0883641F4F10193FD8591DD
S113153093FF81911F018111C1CF9BEB980F9330D1
S113154018F42061805E06C09BE9980F933008F080
S11315509AC12F7E26FF16E02F73722E853621F452
S1131560F22FF0647F2E08C0863621F4622F606863
S1131570762E02C01111115077FE07C01C3348F4B7
S113158044244394410E27E00BC0183030F4212F3B
S113159006C027E04CE3442E03C027E017E0412CAB
S11315A0560174E0A70EB11CF6016081718182813D
S11315B09381042DA401ECD26C01098100FF02C0C7
S11315C003FF06C071FC07C072FC08C0612C08C090
S11315D03DE2632E05C02BE2622E02C090E2692E2A
S11315E0802F8C7081F1662011F084E001C083E0CB
S11315F0851510F0512C0AC0581A73FC07C0B701A6
S113160080E290E0C3D35A94D1F7F4CF662021F05E
S1131610B701862D90E0BAD303FD03C006E311E0C1
S113162002C002E311E0F72DF0717F2EF8018491DE
S1131630882309F45EC271108052B70190E0A6D3EA
S11316400F5F1F4FF3CF77FE0FC04C0C04FF04C095
S11316508A81813309F44A94141474F5F8E0F4157A
S113166078F588E0482E2CC076FC2AC0812F90E0C3
S11316708C159D059CF06CEFC6166FEFD60674F0C2
S1131680772D7068772E0AC0E2E0F0E0EC0FFD1FC2
S1131690E10FF11D8081803319F411501111F4CF41
S11316A077FE0EC044244394410E812F90E0C81667
S11316B0D9062CF41C1904C04424439401C010E03E
S11316C077FE07C01C141D043CF496012F5F3F4FA6
S11316D005C025E030E002C021E030E0662011F0D2
S11316E02F5F3F4F112331F0412F50E04F5F5F4F89
S11316F0240F351F452D50E02417350714F4521AD2
S113170001C0512C872D897041F4552031F0B70167
S113171080E290E03BD35A94F8CF662021F0B701E1
S1131720862D90E033D373FC08C0552031F0B70107
S113173080E390E02BD35A94F8CF77FE5DC09C2DC4
S11317408D2DD7FE02C090E080E0692E782E40E017
S113175050E0C601841991099D878C87960126194A
S11317603709280D391D812F90E0EE27FF27E81B4C
S1131770F90BFF87EE87FFEF6F167F0661F4B70161
S11317808EE290E02B8B3A8B488B598BFFD2598990
S113179048893A892B89C614D70454F06C857D8511
S11317A0661577052CF4F901E40FF51F818101C05A
S11317B080E371E0671A71084F5F5F4FEE85FF8524
S11317C06E167F0664F0B70190E02B8B3A8B488B42
S11317D0598BDCD22B893A8948895989CCCF6C142E
S11317E07D0439F49A81963318F4953311F404FF87
S11317F081E3B70190E045C08A81813309F00F7E0F
S1131800B70190E0C3D2111105C074FE16C085E47F
S113181090E015C0B7018EE290E0B8D282E0662471
S11318206394680EF401E80FF11D8081B70190E024
S1131830ADD2115051F3862DF2CF85E690E0B70179
S1131840A5D2D7FC05C0C114D10439F404FF05C0E6
S1131850D194C194D1088DE201C08BE2B70190E02C
S113186095D280E36AE0C616D1042CF08F5FFAE0CB
S1131870CF1AD108F7CFB70190E088D2B701C601DB
S1131880C09684D236C1833631F0833779F08335FC
S113189009F054C020C0560172E0A70EB11CF60135
S11318A08081898301E010E0640113C05601F2E0F5
S11318B0AF0EB11CF601C080D18026FF03C0612F9A
S11318C070E002C06FEF7FEFC6012B8B54D28C0106
S11318D02B892F7714C05601F2E0AF0EB11CF6012C
S11318E0C080D18026FF03C0612F70E002C06FEF7B
S11318F07FEFC6012B8B24D28C012B892068722E9A
S113190023FD18C0852D90E00817190798F4B70136
S113191080E290E03BD25A94F5CFF60177FC8591B2
S113192077FE81916F01B70190E030D251105A9443
S1131930015011090115110581F7DBC0843611F03E
S1131940893649F5560127FF09C0F4E0AF0EB11CF2
S1131950F60160817181828193810AC0F2E0AF0E49
S1131960B11CF60160817181882777FD8095982FDD
S1131970022F0F7697FF08C090958095709561951A
S11319807F4F8F4F9F4F00682AE030E0A40196D22A
S1131990C82EC8183DC0022F853721F40F7E2AE0D7
S11319A030E01DC0097F8F3691F018F4883559F066
S11319B0A9C0803719F0883711F0A4C0006104FF72
S11319C009C0046007C024FF08C0066006C028E000
S11319D030E005C020E130E002C020E132E05601F1
S11319E007FF09C0F4E0AF0EB11CF60160817181FC
S11319F08281938108C0F2E0AF0EB11CF6016081D0
S1131A00718180E090E0A40159D2C82EC8180F77E4
S1131A1006FF0BC0202F2E7FC11650F404FF0AC00E
S1131A2002FD08C0202F2E7E05C0DC2C202F03C011
S1131A30DC2C01C0D12E24FF0DC0FE01EC0DF11DE4
S1131A408081803311F4297E09C022FF06C0D3941B
S1131A50D39404C0822F867809F0D39423FD12C056
S1131A6020FF06C01C2DD51418F4150D1D19D52CF6
S1131A70D51460F4B70180E290E02B8B87D1D39426
S1131A802B89F6CFD51410F45D1801C0512C24FF16
S1131A9011C0B70180E390E02B8B78D12B8922FF12
S1131AA016C021FF03C088E590E002C088E790E0FB
S1131AB0B7010CC0822F867851F021FD02C080E26C
S1131AC001C08BE227FD8DE2B70190E05FD1C11622
S1131AD030F4B70180E390E059D11150F8CFCA94A3
S1131AE0F401EC0DF11D8081B70190E04FD1C110DC
S1131AF0F6CF552009F4DDCCB70180E290E046D161
S1131B005A94F7CFF7018681978102C08FEF9FEF38
S1131B1063960FB6F894DEBF0FBECDBFDF91CF91B1
S1131B201F910F91FF90EF90DF90CF90BF90AF90F7
S1131B309F908F907F906F905F904F903F902F90E9
S1131B40089597FB072E16F4009406D077FD08D06D
S1131B500BD007FC05D03EF4909581959F4F0895D6
S1131B60709561957F4F0895AA1BBB1B51E107C077
S1131B70AA1FBB1FA617B70710F0A61BB70B881F19
S1131B80991F5A95A9F780959095BC01CD010895A8
S1131B90283008F027E03327DA01990F311D87FD3B
S1131BA0916000966105710539F432602E5F3D93B2
S1131BB030E32A95E1F708959F3F30F080387105AE
S1131BC0610509F03C5F3C5F3D93913008F080680B
S1131BD0911DDF93CF931F930F93FF92EF92192FD1
S1131BE0987F9695E92F96959695E90FFF27EC56E1
S1131BF0FE4F99273327EE24FF24A701E701059020
S1131C000894079428F4360FE71EF81E491F511D47
S1131C10660F771F881F991F0694A1F705900794F4
S1131C2028F4E70EF81E491F561FC11D770F881FA1
S1131C30991F661F0694A1F70590079428F4F80EDF
S1131C40491F561FC71FD11D880F991F661F771F75
S1131C500694A1F70590079420F4490F561FC71F57
S1131C60D81F990F661F771F881F0694A9F78491C0
S1131C701095177041F0D695C79557954795F794E9
S1131C80E7941A95C1F7EAE3F1E068941590159189
S1131C9035916591959105907FE27395E118F10A6C
S1131CA0430B560BC90BD009C0F7E10CF11E431FBF
S1131CB0561FC91FD01D7EF4703311F48A95E6CFE8
S1131CC0E894015030F0080F0AF40027021708F4D2
S1131CD0202F2395022F7A3328F079E37D932A95D8
S1131CE0E9F710C07D932A9589F606949795679530
S1131CF0379517951794E118F10A430B560BC90B46
S1131D00D00998F023957E9173957A3308F070E3A7
S1131D107C932013B8F77E9170617D9330F08395A6
S1131D2071E37D9370E32A95E1F71124EF90FF901E
S1131D300F911F91CF91DF91992787FD9095089579
S1131D40FC010590615070400110D8F78095909582
S1131D508E0F9F1F0895FB01DC018D910190801966
S1131D600110D9F3990B0895FB01DC0101900D9248
S1131D700020E1F70895FC016150704001900110CA
S1131D80D8F7809590958E0F9F1F08950F931F93FA
S1131D90CF93DF93182F092FEB018B8181FD03C0B3
S1131DA08FEF9FEF20C082FF10C04E815F812C8196
S1131DB03D81421753077CF4E881F9819F012F5F2D
S1131DC03F4F39832883108306C0E885F985812F26
S1131DD00995892B29F72E813F812F5F3F4F3F8340
S1131DE02E83812F902FDF91CF911F910F91089512
S1131DF00F931F93CF93DF93CDB7DEB72E970FB614
S1131E00F894DEBF0FBECDBF0D891E8986E08C839A
S1131E101A8309838FEF9FE79E838D83AE01475E0C
S1131E205F4F6F89788DCE01019604DBEF81F885D1
S1131E30E00FF11F10822E960FB6F894DEBF0FBE8E
S1131E40CDBFDF91CF911F910F9108950F931F93F1
S1131E50CF93DF93CDB7DEB72E970FB6F894DEBFDE
S1131E600FBECDBF8C01CA0146E04C831A8309839F
S1131E7077FF02C060E070E8615071097E836D8372
S1131E80A901BC01CE010196D5DA4D815E8157FDD1
S1131E900AC02F813885421753070CF49A01F801C0
S1131EA0E20FF31F10822E960FB6F894DEBF0FBE1A
S1131EB0CDBFDF91CF911F910F910895FA01AA2709
S1131EC0283051F1203181F1E8946F936E7F6E5F79
S1131ED07F4F8F4F9F4FAF4FB1E03ED0B4E03CD027
S1131EE0670F781F891F9A1FA11D680F791F8A1F0A
S1131EF0911DA11D6A0F711D811D911DA11D20D071
S1131F0009F468943F912AE0269F11243019305D2A
S1131F103193DEF6CF010895462F4770405D41931B
S1131F20B3E00FD0C9F7F6CF462F4F70405D4A3368
S1131F3018F0495D31FD4052419302D0A9F7EACF30
S1131F40B4E0A6959795879577956795BA95C9F75F
S1131F5000976105710508959B01AC010A2E069452
S1131F605795479537952795BA95C9F7620F731F0B
S10F1F70841F951FA01D0895F894FFCF56
S1131F7C000011022000C26D0BFAA7496E6465784B
S1131F8C3A2025640A416E67756C61722077696426
S1131F9C74683A2025640A446973742028636D2993
S1131FAC3A20252E32660A57696474682028636DBA
S1131FBC293A20252E326600446567726565090945
S1131FCC536F6E61722044697374616E636520286B
S1131FDC636D290949522044697374616E636520E9
S1131FEC28636D290025640909252E32660909091F
S1131FFC252E3266004E756D626572206F66206FF9
S113200C626A6563747320666F756E6420627920EE
S10B201C49523A20256400003A
S9030000FC
