:100000000C9446000C9465000C9465000C946500FB
:100010000C9465000C9465000C9465000C946500CC
:100020000C9465000C945C020C9465000C946500C3
:100030000C9465000C9465000C9465000C946500AC
:100040000C9465000C9465000C9465000C9465009C
:100050000C9465000C9465000C9465000C9465008C
:100060000C9465000C9465000C9465000C9465007C
:100070000C9465000C9465000C9465000C9465006C
:100080000C9465000C9465000C94650011241FBE4F
:10009000CFEFD0E1DEBFCDBF11E0A0E0B1E0E2E9FB
:1000A000F7E000E00BBF02C007900D92A038B10747
:1000B000D9F711E0A0E8B1E001C01D92A638B10760
:1000C000E1F70E94A4000C94C7030C940000CF93A6
:1000D000DF93CDB7DEB7CA57D0400FB6F894DEBF76
:1000E0000FBECDBFDE011196E0E0F1E08DE301909F
:1000F0000D928150E1F7DE01DE96EDE3F1E08DE354
:1001000001900D928150E1F7FE013196CE01CE961D
:1001100020812C5E2193E817F907D1F788E090E061
:100120006DE370E0AE014F5F5F4F9E01225C3F4F79
:100130000E94D600C658DF4F0FB6F894DEBF0FBE40
:10014000CDBFDF91CF9108950E94AF000E94F601CC
:100150000E94670088E090E00E94CC00089581E052
:1001600090E064E370E00E94730208950E94270308
:100170000895EBE9F0E0908195FFFDCF80939C001E
:10018000089588E80E94B90081E00E94B900BF98F4
:10019000C79AB79BFECF0895CF93C82F8DE80E94D2
:1001A000B9008C2F0E94B900CF910895BF92CF92D1
:1001B000DF92EF92FF920F931F93CF93DF93082F5D
:1001C0006B01C42FE52ED22FB32E8CE80E94B9000C
:1001D000802F0E94B9008C2D0E94B9001C141D04B0
:1001E000A4F40C2F1E2DED2EFB2CC0E0D0E0F80166
:1001F00081918F010E94B900F70181917F010E94D6
:10020000B9002196CC15DD0591F7DF91CF911F91B3
:100210000F91FF90EF90DF90CF90BF9008950F93D4
:100220001F93CF93DF93182F092FC62FD72F81E964
:100230000E94B900802F0E94B900812F0E94B9004E
:100240008D2F0E94B9008C2F0E94B900DF91CF91B1
:100250001F910F9108950F931F93CF93DF93182F42
:10026000062FD42FC22F8BE80E94B900002339F04B
:1002700081E090E0112329F480E090E002C080E06A
:1002800090E00E94B9008D2F0E94B9008C2F0E942F
:10029000B900DF91CF911F910F910895EBE9F0E044
:1002A00080818823ECF780919C000895EF92FF9263
:1002B0000F931F93CF93DF937C0180919B00882342
:1002C00044F4ACE9B0E0EBE9F0E08C918081882364
:1002D000E4F38EE80E94B90086E00E94B900E701CD
:1002E000E49687010E944E01F80181938F01EC177B
:1002F000FD07C1F7F701948580E02585820F911DE8
:1003000095878487968580E02785820F911D978742
:100310008687918980E02289820F911D928B818B43
:10032000938980E02489820F911D948B838B968919
:1003300080E02789820F911D978B868B908D80E0BE
:10034000218D820F911D918F808F928D80E0238D62
:10035000820F911D938F828F948D80E0258D820F67
:10036000911D958F848F968D80E0278D820F911D32
:10037000978F868F90A180E021A1820F911D91A37C
:1003800080A392A180E023A1820F911D93A382A359
:1003900082A590E031A520E0280F391F36A325A3C0
:1003A00030A920E0820F931F95A784A792A980E02F
:1003B00023A9820F911D97A786A794A980E025A95C
:1003C000820F911D91AB80AB96A980E027A9820F87
:1003D000911D93AB82AB85E090E00E944402DF91D7
:1003E000CF911F910F91FF90EF9008950F931F935E
:1003F000CF93DF938C01C9E9D0E080E1888388E165
:1004000080939A0086E080939D0080E80E94B90066
:1004100081E80E94B90088E00E94B90084E690E07B
:100420000E94440281E2888384E80E94B90081E04E
:1004300061E047E02FEF0E942B01C8010E945601A6
:10044000C8010E945601DF91CF911F910F9108952D
:100450001092810110928001882331F48BE085BDD8
:1004600087B7806887BF07C0813029F489E085BDE0
:1004700087B7806887BF7894089587B78F7787BFDD
:1004800085B58F7785BD0895CF93DF93EC018AEF13
:1004900083BD109281011092800180E00E942802A9
:1004A00080918001909181018C179D07C8F30E9473
:1004B0003D02DF91CF9108951F920F920FB60F92D8
:1004C00011248F939F9380918001909181010196D7
:1004D00090938101809380019F918F910F900FBE27
:1004E0000F901F9018950F931F93CF93DF93689FE2
:1004F0008001699F100D789F100D1124C8010E9482
:100500009102C82FD92F209731F08C2F60E070E036
:10051000A8010E94C003CE01DF91CF911F910F91DE
:100520000895CF93DF93AC018230910510F442E03F
:1005300050E0E0918401F091850120E030E0A0E0FE
:10054000B0E024C08081918184179507D0F0841792
:10055000950771F482819381109729F013969C93EB
:100560008E9312972CC0909385018093840127C0AD
:100570002115310519F08217930718F49C01BD016C
:10058000EF0192818381DF01E92FF82F3097D1F6B7
:1005900021153105F9F0C901841B950B84309105B3
:1005A00080F48A819B816115710521F0FB019383A1
:1005B000828304C09093850180938401FE0132966A
:1005C00042C0FE01E80FF91F4193519302979983AE
:1005D000888339C08091820190918301009741F412
:1005E00080917C0190917D019093830180938201A1
:1005F00020917A0130917B012115310541F42DB70D
:100600003EB780917E0190917F01281B390BE091CC
:100610008201F0918301E217F30798F42E1B3F0B40
:100620002417350770F0CA0102962817390748F0D9
:100630008E0F9F1F9093830180938201419351936A
:1006400002C0E0E0F0E0CF01DF91CF9108950F9379
:100650001F93CF93DF939C01009709F48CC0DC01BA
:10066000129713961C921E921297609184017091BA
:1006700085016115710589F48D919C911197820F07
:10068000931F20918201309183012817390769F562
:10069000B0938301A09382016EC0FB0140E050E063
:1006A00001C0FC01EA17FB0730F482819381AF019E
:1006B0000097B9F71FC0E9012297FB83EA830881FD
:1006C0001981C901800F911F8E179F0759F48081EE
:1006D0009181800F911F02969983888382819381F3
:1006E0009B838A834115510529F4B0938501A0931A
:1006F000840141C0FA01B383A283C191D191EC0F6F
:10070000FD1FAE17BF0781F4F901929182918C0F02
:100710009D1F0296DA0111969C938E93828193819C
:1007200013969C938E931297E0E0F0E002C0FB01D9
:10073000BC01DB0112968D919C9113970097B9F73C
:10074000CB0102962D913C911197820F931F20911E
:100750008201309183012817390769F4309729F411
:10076000109285011092840102C01382128270934C
:10077000830160938201DF91CF911F910F910895C2
:10078000DC0101C06D9341505040E0F70895F894AA
:02079000FFCF99
:100792002828292B2B2928262424262828262628DF
:1007A20028292B2B292826242426282624242626D9
:1007B20028242628292824262829282624262828C9
:1007C200292B2B29282624242628262424121212F7
:1007D2001212121212121212121E0C0C12121212F7
:1007E20012121212121212121E0C0C1212121212E7
:1007F20009091212120909121212121212121212FB
:10080200121212121212121E0C0C0000860120008B
:00000001FF
